:040000000C9450000C
:100004000C9400000C9400000C9400000C9400006C
:100014000C9400000C9400000C9400000C9400005C
:100024000C9400000C9400000C9400000C9400004C
:100034000C9400000C9400000C9400000C9400003C
:100044000C9400000C9400000C9400000C9400002C
:100054000001020304050607080910111213141500
:100064001617181920212223242526272829303160
:1000740032333435363738394041424344454647B4
:1000840048495051525354555657585900003C0052
:10009400600254000200080090000000F894EE276B
:1000A400ECBBF1E0FBBFEBBFE5BFF8E1F1BDE1BDA7
:1000B4008DE0A2E0BB27ED938A95E9F780E098E014
:1000C400A0E6ED930197E9F7E2E9F0E085919591D7
:1000D400009761F0A591B59105901590BF01F001CD
:1000E40005900D920197E1F7FB01F0CFEFE5EDBF2D
:1000F400E8E0EEBFC0E6D2E00C948000E0E0EBBBA9
:10010400EABBE8BBE7BBE5BBEFEFE4BBE0E0E2BB87
:10011400EFEFE1BBE0E0E3BFE2BFECBFEFBDEEBD5C
:10012400EDBDECBDE7BDE6BDEBBDEABDE9BDE8BD97
:10013400E2BDE5BDE4BDE3BDE5BFE4BFE9BFEAB9A7
:10014400E0E8E8B9E0E0E0BFE6B9EDB9E6BFECE32A
:10015400F0E0E415F50559F444245524F3013196EF
:100164003F01A0E6B2E0A60DB71DEC91E2BBA0E60C
:10017400B2E0A40DB51DEC91E5BBF20131962F015F
:10018400A4E1B0E00E94C800E2CFFFCF109639F09E
:1001940080EA9FE00197F1F7A8951197C9F70895B0
:00000001FF
