:040000000C942F002D
:100004000C9400000C9400000C9400000C9400006C
:100014000C9400000C9400000C9400000C9400005C
:100024000C9400000C9400000C9400000C9400004C
:100034000C9400000C9400000C9400000C9400003C
:100044000C9400000C9400000C9400000C9400002C
:1000540000000200060054000000F894EE27ECBBF8
:10006400F1E0FBBFEBBFE5BFF8E1F1BDE1BD8DE021
:10007400A2E0BB27ED938A95E9F780E098E0A0E63B
:10008400ED930197E9F7E6E5F0E085919591009706
:1000940061F0A591B59105901590BF01F00105900F
:1000A4000D920197E1F7FB01F0CFEFE5EDBFE8E03A
:1000B400EEBFC0E6D2E00C945F00E0E0EBBBEABB2D
:1000C400E8BBE7BBE5BBEFEFE4BBE0E0E2BBE1BBD1
:1000D400E3BFE2BFECBFEFBDEEBDEDBDECBDE7BDE0
:1000E400E6BDEBBDEABDE9BDE8BDE2BDE5BDE4BDED
:1000F400E3BDE5BFE4BFE9BFEAB9E0E8E8B9E0E0A1
:10010400E0BFE6B9EDB9E6BF66247724ECE3F0E09E
:100114006E167F064CF465BAA0E5B0E00E94980024
:10012400F30131963F01F2CFEFCFFFCF109639F0B4
:1001340080EA9FE00197F1F7A8951197C9F7089510
:00000001FF
